{
  "contractName": "Dao",
  "abi": [
    {
      "inputs": [
        {
          "internalType": "uint256",
          "name": "contributionTime",
          "type": "uint256"
        },
        {
          "internalType": "uint256",
          "name": "_voteTime",
          "type": "uint256"
        },
        {
          "internalType": "uint256",
          "name": "_quorum",
          "type": "uint256"
        }
      ],
      "stateMutability": "nonpayable",
      "type": "constructor"
    },
    {
      "inputs": [],
      "name": "admin",
      "outputs": [
        {
          "internalType": "address",
          "name": "",
          "type": "address"
        }
      ],
      "stateMutability": "view",
      "type": "function",
      "constant": true
    },
    {
      "inputs": [],
      "name": "availabeFunds",
      "outputs": [
        {
          "internalType": "uint256",
          "name": "",
          "type": "uint256"
        }
      ],
      "stateMutability": "view",
      "type": "function",
      "constant": true
    },
    {
      "inputs": [],
      "name": "contributionEnd",
      "outputs": [
        {
          "internalType": "uint256",
          "name": "",
          "type": "uint256"
        }
      ],
      "stateMutability": "view",
      "type": "function",
      "constant": true
    },
    {
      "inputs": [
        {
          "internalType": "address",
          "name": "",
          "type": "address"
        }
      ],
      "name": "investors",
      "outputs": [
        {
          "internalType": "bool",
          "name": "",
          "type": "bool"
        }
      ],
      "stateMutability": "view",
      "type": "function",
      "constant": true
    },
    {
      "inputs": [],
      "name": "nextProposalId",
      "outputs": [
        {
          "internalType": "uint256",
          "name": "",
          "type": "uint256"
        }
      ],
      "stateMutability": "view",
      "type": "function",
      "constant": true
    },
    {
      "inputs": [
        {
          "internalType": "uint256",
          "name": "",
          "type": "uint256"
        }
      ],
      "name": "proposals",
      "outputs": [
        {
          "internalType": "uint256",
          "name": "id",
          "type": "uint256"
        },
        {
          "internalType": "string",
          "name": "name",
          "type": "string"
        },
        {
          "internalType": "uint256",
          "name": "amount",
          "type": "uint256"
        },
        {
          "internalType": "address payable",
          "name": "recipient",
          "type": "address"
        },
        {
          "internalType": "uint256",
          "name": "votes",
          "type": "uint256"
        },
        {
          "internalType": "uint256",
          "name": "end",
          "type": "uint256"
        },
        {
          "internalType": "bool",
          "name": "executed",
          "type": "bool"
        }
      ],
      "stateMutability": "view",
      "type": "function",
      "constant": true
    },
    {
      "inputs": [],
      "name": "quorum",
      "outputs": [
        {
          "internalType": "uint256",
          "name": "",
          "type": "uint256"
        }
      ],
      "stateMutability": "view",
      "type": "function",
      "constant": true
    },
    {
      "inputs": [
        {
          "internalType": "address",
          "name": "",
          "type": "address"
        }
      ],
      "name": "shares",
      "outputs": [
        {
          "internalType": "uint256",
          "name": "",
          "type": "uint256"
        }
      ],
      "stateMutability": "view",
      "type": "function",
      "constant": true
    },
    {
      "inputs": [],
      "name": "totalShares",
      "outputs": [
        {
          "internalType": "uint256",
          "name": "",
          "type": "uint256"
        }
      ],
      "stateMutability": "view",
      "type": "function",
      "constant": true
    },
    {
      "inputs": [],
      "name": "voteTime",
      "outputs": [
        {
          "internalType": "uint256",
          "name": "",
          "type": "uint256"
        }
      ],
      "stateMutability": "view",
      "type": "function",
      "constant": true
    },
    {
      "inputs": [
        {
          "internalType": "address",
          "name": "",
          "type": "address"
        },
        {
          "internalType": "uint256",
          "name": "",
          "type": "uint256"
        }
      ],
      "name": "votes",
      "outputs": [
        {
          "internalType": "bool",
          "name": "",
          "type": "bool"
        }
      ],
      "stateMutability": "view",
      "type": "function",
      "constant": true
    },
    {
      "stateMutability": "payable",
      "type": "receive",
      "payable": true
    },
    {
      "inputs": [],
      "name": "contribute",
      "outputs": [],
      "stateMutability": "payable",
      "type": "function",
      "payable": true
    },
    {
      "inputs": [
        {
          "internalType": "uint256",
          "name": "amount",
          "type": "uint256"
        }
      ],
      "name": "redeemShare",
      "outputs": [],
      "stateMutability": "nonpayable",
      "type": "function"
    },
    {
      "inputs": [
        {
          "internalType": "uint256",
          "name": "amount",
          "type": "uint256"
        },
        {
          "internalType": "address",
          "name": "to",
          "type": "address"
        }
      ],
      "name": "tranferShare",
      "outputs": [],
      "stateMutability": "nonpayable",
      "type": "function"
    },
    {
      "inputs": [
        {
          "internalType": "string",
          "name": "name",
          "type": "string"
        },
        {
          "internalType": "uint256",
          "name": "amount",
          "type": "uint256"
        },
        {
          "internalType": "address payable",
          "name": "recipient",
          "type": "address"
        }
      ],
      "name": "createProposal",
      "outputs": [],
      "stateMutability": "nonpayable",
      "type": "function"
    },
    {
      "inputs": [
        {
          "internalType": "uint256",
          "name": "proposalId",
          "type": "uint256"
        }
      ],
      "name": "vote",
      "outputs": [],
      "stateMutability": "nonpayable",
      "type": "function"
    },
    {
      "inputs": [
        {
          "internalType": "uint256",
          "name": "proposalId",
          "type": "uint256"
        }
      ],
      "name": "executeProposal",
      "outputs": [],
      "stateMutability": "nonpayable",
      "type": "function"
    },
    {
      "inputs": [
        {
          "internalType": "uint256",
          "name": "amount",
          "type": "uint256"
        },
        {
          "internalType": "address payable",
          "name": "to",
          "type": "address"
        }
      ],
      "name": "withdrawEther",
      "outputs": [],
      "stateMutability": "nonpayable",
      "type": "function"
    }
  ],
  "bytecode": "0x60806040523480156200001157600080fd5b50604051620022d6380380620022d6833981810160405281019062000037919062000136565b600081118015620000485750606481105b6200008a576040517f08c379a00000000000000000000000000000000000000000000000000000000081526004016200008190620001f3565b60405180910390fd5b824262000098919062000244565b600681905550816008819055508060098190555033600a60006101000a81548173ffffffffffffffffffffffffffffffffffffffff021916908373ffffffffffffffffffffffffffffffffffffffff160217905550505050620002a1565b600080fd5b6000819050919050565b6200011081620000fb565b81146200011c57600080fd5b50565b600081519050620001308162000105565b92915050565b600080600060608486031215620001525762000151620000f6565b5b600062000162868287016200011f565b935050602062000175868287016200011f565b925050604062000188868287016200011f565b9150509250925092565b600082825260208201905092915050565b7f71756f72756d206973206e6f7420612076616c6964206e756d62657200000000600082015250565b6000620001db601c8362000192565b9150620001e882620001a3565b602082019050919050565b600060208201905081810360008301526200020e81620001cc565b9050919050565b7f4e487b7100000000000000000000000000000000000000000000000000000000600052601160045260246000fd5b60006200025182620000fb565b91506200025e83620000fb565b9250827fffffffffffffffffffffffffffffffffffffffffffffffffffffffffffffffff0382111562000296576200029562000215565b5b828201905092915050565b61202580620002b16000396000f3fe60806040526004361061010d5760003560e01c80639465713611610095578063ce7c2ac211610064578063ce7c2ac214610392578063d151b516146103cf578063d1cfa40f146103fa578063d7bb99ba14610423578063f851a4401461042d5761012c565b806394657136146102d65780639f2524ee14610301578063bcf93dd61461033e578063ce56c454146103695761012c565b80632ab09d14116100dc5780632ab09d14146101f15780633a98ef391461021c5780636ac1e01f146102475780636f7bc9be14610270578063868643df146102ad5761012c565b80630121b93f14610131578063013cf08b1461015a5780630d61b5191461019d5780631703a018146101c65761012c565b3661012c57346004600082825461012491906112d3565b925050819055005b600080fd5b34801561013d57600080fd5b5061015860048036038101906101539190611369565b610458565b005b34801561016657600080fd5b50610181600480360381019061017c9190611369565b6106b2565b604051610194979695949392919061149a565b60405180910390f35b3480156101a957600080fd5b506101c460048036038101906101bf9190611369565b6107a9565b005b3480156101d257600080fd5b506101db6109a4565b6040516101e89190611510565b60405180910390f35b3480156101fd57600080fd5b506102066109aa565b6040516102139190611510565b60405180910390f35b34801561022857600080fd5b506102316109b0565b60405161023e9190611510565b60405180910390f35b34801561025357600080fd5b5061026e6004803603810190610269919061168c565b6109b6565b005b34801561027c57600080fd5b5061029760048036038101906102929190611739565b610be3565b6040516102a49190611766565b60405180910390f35b3480156102b957600080fd5b506102d460048036038101906102cf9190611369565b610c03565b005b3480156102e257600080fd5b506102eb610d83565b6040516102f89190611510565b60405180910390f35b34801561030d57600080fd5b5061032860048036038101906103239190611781565b610d89565b6040516103359190611766565b60405180910390f35b34801561034a57600080fd5b50610353610db8565b6040516103609190611510565b60405180910390f35b34801561037557600080fd5b50610390600480360381019061038b91906117c1565b610dbe565b005b34801561039e57600080fd5b506103b960048036038101906103b49190611739565b610e5c565b6040516103c69190611510565b60405180910390f35b3480156103db57600080fd5b506103e4610e74565b6040516103f19190611510565b60405180910390f35b34801561040657600080fd5b50610421600480360381019061041c9190611801565b610e7a565b005b61042b611003565b005b34801561043957600080fd5b50610442611128565b60405161044f9190611850565b60405180910390f35b600115156000803373ffffffffffffffffffffffffffffffffffffffff1673ffffffffffffffffffffffffffffffffffffffff16815260200190815260200160002060009054906101000a900460ff161515146104ea576040517f08c379a00000000000000000000000000000000000000000000000000000000081526004016104e1906118b7565b60405180910390fd5b600060026000838152602001908152602001600020905060001515600360003373ffffffffffffffffffffffffffffffffffffffff1673ffffffffffffffffffffffffffffffffffffffff168152602001908152602001600020600084815260200190815260200160002060009054906101000a900460ff161515146105a5576040517f08c379a000000000000000000000000000000000000000000000000000000000815260040161059c90611923565b60405180910390fd5b806005015442106105eb576040517f08c379a00000000000000000000000000000000000000000000000000000000081526004016105e29061198f565b60405180910390fd5b6001600360003373ffffffffffffffffffffffffffffffffffffffff1673ffffffffffffffffffffffffffffffffffffffff168152602001908152602001600020600084815260200190815260200160002060006101000a81548160ff021916908315150217905550600160003373ffffffffffffffffffffffffffffffffffffffff1673ffffffffffffffffffffffffffffffffffffffff168152602001908152602001600020548160040160008282546106a791906112d3565b925050819055505050565b60026020528060005260406000206000915090508060000154908060010180546106db906119de565b80601f0160208091040260200160405190810160405280929190818152602001828054610707906119de565b80156107545780601f1061072957610100808354040283529160200191610754565b820191906000526020600020905b81548152906001019060200180831161073757829003601f168201915b5050505050908060020154908060030160009054906101000a900473ffffffffffffffffffffffffffffffffffffffff16908060040154908060050154908060060160009054906101000a900460ff16905087565b600a60009054906101000a900473ffffffffffffffffffffffffffffffffffffffff1673ffffffffffffffffffffffffffffffffffffffff163373ffffffffffffffffffffffffffffffffffffffff1614610839576040517f08c379a000000000000000000000000000000000000000000000000000000000815260040161083090611a5b565b60405180910390fd5b60006002600083815260200190815260200160002090508060050154421015610897576040517f08c379a000000000000000000000000000000000000000000000000000000000815260040161088e90611aed565b60405180910390fd5b600015158160060160009054906101000a900460ff161515146108ef576040517f08c379a00000000000000000000000000000000000000000000000000000000081526004016108e690611b7f565b60405180910390fd5b600954600554606483600401546109069190611b9f565b6109109190611c28565b1015610951576040517f08c379a000000000000000000000000000000000000000000000000000000000815260040161094890611ca5565b60405180910390fd5b60018160060160006101000a81548160ff0219169083151502179055506109a081600201548260030160009054906101000a900473ffffffffffffffffffffffffffffffffffffffff1661114e565b5050565b60095481565b60075481565b60055481565b600115156000803373ffffffffffffffffffffffffffffffffffffffff1673ffffffffffffffffffffffffffffffffffffffff16815260200190815260200160002060009054906101000a900460ff16151514610a48576040517f08c379a0000000000000000000000000000000000000000000000000000000008152600401610a3f906118b7565b60405180910390fd5b816004541015610a8d576040517f08c379a0000000000000000000000000000000000000000000000000000000008152600401610a8490611d11565b60405180910390fd5b6040518060e0016040528060075481526020018481526020018381526020018273ffffffffffffffffffffffffffffffffffffffff1681526020016000815260200160085442610add91906112d3565b815260200160001515815250600260006007548152602001908152602001600020600082015181600001556020820151816001019080519060200190610b249291906111f7565b506040820151816002015560608201518160030160006101000a81548173ffffffffffffffffffffffffffffffffffffffff021916908373ffffffffffffffffffffffffffffffffffffffff1602179055506080820151816004015560a0820151816005015560c08201518160060160006101000a81548160ff0219169083151502179055509050508160046000828254610bbf9190611d31565b9250508190555060076000815480929190610bd990611d65565b9190505550505050565b60006020528060005260406000206000915054906101000a900460ff1681565b80600160003373ffffffffffffffffffffffffffffffffffffffff1673ffffffffffffffffffffffffffffffffffffffff168152602001908152602001600020541015610c85576040517f08c379a0000000000000000000000000000000000000000000000000000000008152600401610c7c90611df9565b60405180910390fd5b806004541015610cca576040517f08c379a0000000000000000000000000000000000000000000000000000000008152600401610cc190611e65565b60405180910390fd5b80600160003373ffffffffffffffffffffffffffffffffffffffff1673ffffffffffffffffffffffffffffffffffffffff1681526020019081526020016000206000828254610d199190611d31565b925050819055508060046000828254610d329190611d31565b925050819055503373ffffffffffffffffffffffffffffffffffffffff166108fc829081150290604051600060405180830381858888f19350505050158015610d7f573d6000803e3d6000fd5b5050565b60045481565b60036020528160005260406000206020528060005260406000206000915091509054906101000a900460ff1681565b60085481565b600a60009054906101000a900473ffffffffffffffffffffffffffffffffffffffff1673ffffffffffffffffffffffffffffffffffffffff163373ffffffffffffffffffffffffffffffffffffffff1614610e4e576040517f08c379a0000000000000000000000000000000000000000000000000000000008152600401610e4590611a5b565b60405180910390fd5b610e58828261114e565b5050565b60016020528060005260406000206000915090505481565b60065481565b81600160003373ffffffffffffffffffffffffffffffffffffffff1673ffffffffffffffffffffffffffffffffffffffff168152602001908152602001600020541015610efc576040517f08c379a0000000000000000000000000000000000000000000000000000000008152600401610ef390611ed1565b60405180910390fd5b81600160003373ffffffffffffffffffffffffffffffffffffffff1673ffffffffffffffffffffffffffffffffffffffff1681526020019081526020016000206000828254610f4b9190611d31565b9250508190555081600160008373ffffffffffffffffffffffffffffffffffffffff1673ffffffffffffffffffffffffffffffffffffffff1681526020019081526020016000206000828254610fa191906112d3565b9250508190555060016000808373ffffffffffffffffffffffffffffffffffffffff1673ffffffffffffffffffffffffffffffffffffffff16815260200190815260200160002060006101000a81548160ff0219169083151502179055505050565b6006544210611047576040517f08c379a000000000000000000000000000000000000000000000000000000000815260040161103e90611f63565b60405180910390fd5b60016000803373ffffffffffffffffffffffffffffffffffffffff1673ffffffffffffffffffffffffffffffffffffffff16815260200190815260200160002060006101000a81548160ff02191690831515021790555034600160003373ffffffffffffffffffffffffffffffffffffffff1673ffffffffffffffffffffffffffffffffffffffff16815260200190815260200160002060008282546110ed91906112d3565b92505081905550346005600082825461110691906112d3565b92505081905550346004600082825461111f91906112d3565b92505081905550565b600a60009054906101000a900473ffffffffffffffffffffffffffffffffffffffff1681565b600454821115611193576040517f08c379a000000000000000000000000000000000000000000000000000000000815260040161118a90611fcf565b60405180910390fd5b81600460008282546111a59190611d31565b925050819055508073ffffffffffffffffffffffffffffffffffffffff166108fc839081150290604051600060405180830381858888f193505050501580156111f2573d6000803e3d6000fd5b505050565b828054611203906119de565b90600052602060002090601f016020900481019282611225576000855561126c565b82601f1061123e57805160ff191683800117855561126c565b8280016001018555821561126c579182015b8281111561126b578251825591602001919060010190611250565b5b509050611279919061127d565b5090565b5b8082111561129657600081600090555060010161127e565b5090565b6000819050919050565b7f4e487b7100000000000000000000000000000000000000000000000000000000600052601160045260246000fd5b60006112de8261129a565b91506112e98361129a565b9250827fffffffffffffffffffffffffffffffffffffffffffffffffffffffffffffffff0382111561131e5761131d6112a4565b5b828201905092915050565b6000604051905090565b600080fd5b600080fd5b6113468161129a565b811461135157600080fd5b50565b6000813590506113638161133d565b92915050565b60006020828403121561137f5761137e611333565b5b600061138d84828501611354565b91505092915050565b61139f8161129a565b82525050565b600081519050919050565b600082825260208201905092915050565b60005b838110156113df5780820151818401526020810190506113c4565b838111156113ee576000848401525b50505050565b6000601f19601f8301169050919050565b6000611410826113a5565b61141a81856113b0565b935061142a8185602086016113c1565b611433816113f4565b840191505092915050565b600073ffffffffffffffffffffffffffffffffffffffff82169050919050565b60006114698261143e565b9050919050565b6114798161145e565b82525050565b60008115159050919050565b6114948161147f565b82525050565b600060e0820190506114af600083018a611396565b81810360208301526114c18189611405565b90506114d06040830188611396565b6114dd6060830187611470565b6114ea6080830186611396565b6114f760a0830185611396565b61150460c083018461148b565b98975050505050505050565b60006020820190506115256000830184611396565b92915050565b600080fd5b600080fd5b7f4e487b7100000000000000000000000000000000000000000000000000000000600052604160045260246000fd5b61156d826113f4565b810181811067ffffffffffffffff8211171561158c5761158b611535565b5b80604052505050565b600061159f611329565b90506115ab8282611564565b919050565b600067ffffffffffffffff8211156115cb576115ca611535565b5b6115d4826113f4565b9050602081019050919050565b82818337600083830152505050565b60006116036115fe846115b0565b611595565b90508281526020810184848401111561161f5761161e611530565b5b61162a8482856115e1565b509392505050565b600082601f8301126116475761164661152b565b5b81356116578482602086016115f0565b91505092915050565b6116698161145e565b811461167457600080fd5b50565b60008135905061168681611660565b92915050565b6000806000606084860312156116a5576116a4611333565b5b600084013567ffffffffffffffff8111156116c3576116c2611338565b5b6116cf86828701611632565b93505060206116e086828701611354565b92505060406116f186828701611677565b9150509250925092565b60006117068261143e565b9050919050565b611716816116fb565b811461172157600080fd5b50565b6000813590506117338161170d565b92915050565b60006020828403121561174f5761174e611333565b5b600061175d84828501611724565b91505092915050565b600060208201905061177b600083018461148b565b92915050565b6000806040838503121561179857611797611333565b5b60006117a685828601611724565b92505060206117b785828601611354565b9150509250929050565b600080604083850312156117d8576117d7611333565b5b60006117e685828601611354565b92505060206117f785828601611677565b9150509250929050565b6000806040838503121561181857611817611333565b5b600061182685828601611354565b925050602061183785828601611724565b9150509250929050565b61184a816116fb565b82525050565b60006020820190506118656000830184611841565b92915050565b7f6f6e6c7920696e766573746f7273000000000000000000000000000000000000600082015250565b60006118a1600e836113b0565b91506118ac8261186b565b602082019050919050565b600060208201905081810360008301526118d081611894565b9050919050565b7f796f752063616e20766f7465206f6e6c79206f6e636500000000000000000000600082015250565b600061190d6016836113b0565b9150611918826118d7565b602082019050919050565b6000602082019050818103600083015261193c81611900565b9050919050565b7f7468652070726f706f73616c2074696d652068617320656e6465640000000000600082015250565b6000611979601b836113b0565b915061198482611943565b602082019050919050565b600060208201905081810360008301526119a88161196c565b9050919050565b7f4e487b7100000000000000000000000000000000000000000000000000000000600052602260045260246000fd5b600060028204905060018216806119f657607f821691505b602082108103611a0957611a086119af565b5b50919050565b7f6f6e6c792061646d696e00000000000000000000000000000000000000000000600082015250565b6000611a45600a836113b0565b9150611a5082611a0f565b602082019050919050565b60006020820190508181036000830152611a7481611a38565b9050919050565b7f63616e6e6f742065786563757465207768656e2074696d652069736e2774206560008201527f6e64656400000000000000000000000000000000000000000000000000000000602082015250565b6000611ad76024836113b0565b9150611ae282611a7b565b604082019050919050565b60006020820190508181036000830152611b0681611aca565b9050919050565b7f63616e6e6f742065786563757465207468652070726f706f73616c207468617460008201527f20616c7265616479206578656375746564000000000000000000000000000000602082015250565b6000611b696031836113b0565b9150611b7482611b0d565b604082019050919050565b60006020820190508181036000830152611b9881611b5c565b9050919050565b6000611baa8261129a565b9150611bb58361129a565b9250817fffffffffffffffffffffffffffffffffffffffffffffffffffffffffffffffff0483118215151615611bee57611bed6112a4565b5b828202905092915050565b7f4e487b7100000000000000000000000000000000000000000000000000000000600052601260045260246000fd5b6000611c338261129a565b9150611c3e8361129a565b925082611c4e57611c4d611bf9565b5b828204905092915050565b7f766f74657320617265206e6f7420656e6f75676820746f206578656375746500600082015250565b6000611c8f601f836113b0565b9150611c9a82611c59565b602082019050919050565b60006020820190508181036000830152611cbe81611c82565b9050919050565b7f74686520616d6f756e7420697320746f6f206269670000000000000000000000600082015250565b6000611cfb6015836113b0565b9150611d0682611cc5565b602082019050919050565b60006020820190508181036000830152611d2a81611cee565b9050919050565b6000611d3c8261129a565b9150611d478361129a565b925082821015611d5a57611d596112a4565b5b828203905092915050565b6000611d708261129a565b91507fffffffffffffffffffffffffffffffffffffffffffffffffffffffffffffffff8203611da257611da16112a4565b5b600182019050919050565b7f6e6f7420656e6f75676820736861726573000000000000000000000000000000600082015250565b6000611de36011836113b0565b9150611dee82611dad565b602082019050919050565b60006020820190508181036000830152611e1281611dd6565b9050919050565b7f6e6f7420656e6f75676820617661696c61626c6546756e640000000000000000600082015250565b6000611e4f6018836113b0565b9150611e5a82611e19565b602082019050919050565b60006020820190508181036000830152611e7e81611e42565b9050919050565b7f6e6f7420656e6f75676820736861726500000000000000000000000000000000600082015250565b6000611ebb6010836113b0565b9150611ec682611e85565b602082019050919050565b60006020820190508181036000830152611eea81611eae565b9050919050565b7f636f6e747269627574696f6e2074696d652068617320656e646564207769746860008201527f20636f6e747269627574696f6e456e6400000000000000000000000000000000602082015250565b6000611f4d6030836113b0565b9150611f5882611ef1565b604082019050919050565b60006020820190508181036000830152611f7c81611f40565b9050919050565b7f6e6f7420656e6f75676820617661696c61626c6566756e647300000000000000600082015250565b6000611fb96019836113b0565b9150611fc482611f83565b602082019050919050565b60006020820190508181036000830152611fe881611fac565b905091905056fea2646970667358221220e8724d159ba0c3093f7e3810954f383e8ff86f1e8841f31a9595b3cb14edf8bb64736f6c634300080d0033",
  "immutableReferences": {},
  "source": "// SPDX-License-Identifier: MIT\n// Tells the Solidity compiler to compile only from v0.8.13 to v0.9.0\npragma solidity ^0.8.13;\n\ncontract Dao {\n    // Struct\n    struct Proposal {\n        uint id;\n        string name;\n        uint amount;\n        address payable recipient;\n        uint votes;\n        uint end;\n        bool executed;\n    }\n\n    // Mappings\n    mapping(address => bool) public investors;\n    mapping(address => uint) public shares;\n    mapping(uint => Proposal) public proposals;\n    mapping(address => mapping(uint => bool)) public votes;\n    //\n\n    // Variables\n    uint public availabeFunds;\n    uint public totalShares;\n    uint public contributionEnd;\n    uint public nextProposalId;\n    uint public voteTime;\n    uint public quorum;\n    address public admin;\n\n    //\n\n    constructor(uint contributionTime, uint _voteTime, uint _quorum) {\n        require(_quorum > 0 && _quorum < 100, \"quorum is not a valid number\");\n        contributionEnd = block.timestamp + contributionTime;\n        voteTime = _voteTime;\n        quorum = _quorum;\n        admin = msg.sender;\n    }\n\n    /**\n@dev this function contribute and add inverstors && change shares, availableFund).\n*/\n    function contribute() external payable {\n        require(\n            block.timestamp < contributionEnd,\n            \"contribution time has ended with contributionEnd\"\n        );\n        investors[msg.sender] = true;\n        shares[msg.sender] += msg.value;\n        totalShares += msg.value;\n        availabeFunds += msg.value;\n    }\n\n    /**\n@dev this function redeems the share that investors has invested.\n*/\n    function redeemShare(uint amount) external {\n        require(shares[msg.sender] >= amount, \"not enough shares\");\n        require(availabeFunds >= amount, \"not enough availableFund\");\n\n        shares[msg.sender] -= amount;\n        availabeFunds -= amount;\n        payable(msg.sender).transfer(amount);\n    }\n\n    /**\n@dev this function is transfering the shares.\n*/\n    function tranferShare(uint amount, address to) external {\n        require(shares[msg.sender] >= amount, \"not enough share\");\n\n        shares[msg.sender] -= amount;\n        shares[to] += amount;\n        investors[to] = true;\n    }\n\n    /**\n@dev this function creates the proposals \n*/\n    function createProposal(\n        string memory name,\n        uint amount,\n        address payable recipient\n    ) external onlyInvestors {\n        require(availabeFunds >= amount, \"the amount is too big\");\n\n        proposals[nextProposalId] = Proposal(\n            nextProposalId,\n            name,\n            amount,\n            recipient,\n            0,\n            block.timestamp + voteTime,\n            false\n        );\n        availabeFunds -= amount;\n        nextProposalId++;\n    }\n\n    /**\n@dev this function is allow to vote or for voting\n*/\n    function vote(uint proposalId) external onlyInvestors {\n        Proposal storage proposal = proposals[proposalId];\n\n        require(\n            votes[msg.sender][proposalId] == false,\n            \"you can vote only once\"\n        );\n        require(block.timestamp < proposal.end, \"the proposal time has ended\");\n\n        // allow voter to vote ( prevent double voting )\n        votes[msg.sender][proposalId] = true;\n        proposal.votes += shares[msg.sender];\n    }\n\n    /**\n@dev this function is executing the proposals\n*/\n    function executeProposal(uint proposalId) external onlyAdmin {\n        Proposal storage proposal = proposals[proposalId];\n\n        require(\n            block.timestamp >= proposal.end,\n            \"cannot execute when time isn't ended\"\n        );\n        require(\n            proposal.executed == false,\n            \"cannot execute the proposal that already executed\"\n        );\n        // complex the shares to execute\n        require(\n            (proposal.votes * 100) / totalShares >= quorum,\n            \"votes are not enough to execute\"\n        );\n\n        proposal.executed = true; // Mark as executed\n        _transferEther(proposal.amount, proposal.recipient);\n    }\n\n    /**\n@dev these functions are transfering!\n*/\n    function withdrawEther(uint amount, address payable to) external onlyAdmin {\n        _transferEther(amount, to);\n    }\n\n    receive() external payable {\n        availabeFunds += msg.value;\n    }\n\n    function _transferEther(uint amount, address payable to) internal {\n        require(amount <= availabeFunds, \"not enough availablefunds\");\n        availabeFunds -= amount;\n        payable(to).transfer(amount);\n    }\n\n    /**\n@dev modifiers\n*/\n    modifier onlyInvestors() {\n        require(investors[msg.sender] == true, \"only investors\");\n        _;\n    }\n\n    modifier onlyAdmin() {\n        require(msg.sender == admin, \"only admin\");\n        _;\n    }\n}\n",
  "sourcePath": "E:\\Coding\\Web3\\Web3 master\\DAO\\my-dao\\contracts\\Dao.sol",
  "compiler": {
    "name": "solc",
    "version": "0.8.13+commit.abaa5c0e.Emscripten.clang"
  },
  "schemaVersion": "3.4.16",
  "updatedAt": "2024-12-25T18:34:13.782Z",
  "networkType": "ethereum",
  "devdoc": {
    "kind": "dev",
    "methods": {
      "contribute()": {
        "details": "this function contribute and add inverstors && change shares, availableFund)."
      },
      "createProposal(string,uint256,address)": {
        "details": "this function creates the proposals "
      },
      "executeProposal(uint256)": {
        "details": "this function is executing the proposals"
      },
      "redeemShare(uint256)": {
        "details": "this function redeems the share that investors has invested."
      },
      "tranferShare(uint256,address)": {
        "details": "this function is transfering the shares."
      },
      "vote(uint256)": {
        "details": "this function is allow to vote or for voting"
      },
      "withdrawEther(uint256,address)": {
        "details": "these functions are transfering!"
      }
    },
    "version": 1
  },
  "userdoc": {
    "kind": "user",
    "methods": {},
    "version": 1
  }
}